:100000005AC074C073C072C071C070C06FC06EC07F
:100010006DC06CC06BC06AC069C068C067C066C094
:1000200065C064C063C062C061C060C05FC05EC0C4
:100030005DC05CC007634236B79BD8A71A396856C3
:1000400018AEBAAB558C1D3CB7CC5763BD6DEDFDFA
:10005000753EF6177231BF000000803F08000000B7
:10006000BE922449123EABAAAA2ABECDCCCC4C3EAD
:1000700000000080BEABAAAAAA3E00000000BF009C
:100080000000803F0000000000084178D3BB438798
:10009000D1133D190E3CC3BD4282AD2B3E68EC82AC
:1000A00076BED98FE1A93E4C80EFFFBE01C4FF7F31
:1000B0003F000000000011241FBECFEFCDBFDFE3E3
:1000C000DEBF1FE3A0E0BFE3E0ECFCE002C0059070
:1000D0000D92A430B107D9F72FE3A4E0BFE301C02C
:1000E0001D92A431B207E1F75CD1E8C589CFE0EAFF
:1000F000F0E080818360808381818160818386EAF2
:100100008A95F1F700C00895E0E0F4E08689887FE1
:10011000868B86898460868B8689877F868B81EC37
:10012000809380060895E0E2F4E08081836080831C
:10013000E0E0FAE081858E7F818787E0808381E33C
:1001400081830895E0E2F4E080818460808384818B
:100150008B7F8483E0E0F8E080E09AE080879187FD
:1001600080EC868308958091040887FFFCCF8091FE
:10017000000808958F929F92AF92BF92CF92DF9224
:10018000EF92FF9220E030E040E451E422D29B0164
:10019000AC0160E070E080E090E4B7D320E030E0B4
:1001A00048ED51E445D387D29B0140E050E060EA3E
:1001B00075E286E290E050D569017A01A091200AAB
:1001C000B091210AE091043FF091053F80E28093D5
:1001D00027048091000A8E7F8093000A8091200A74
:1001E0009091210A8B5A9F4F8E179F0720F0215024
:1001F0003109A9011AC049015A01AA24BB24A50149
:10020000940146D59F0140E050E004D5BA01A90110
:100210004B5A5F4F6F4F7F4F84169506A606B70661
:1002200020F4481959096A097B0980E28093270460
:100230004093200A5093210AC092280AD092290A9A
:100240008091000A81608093000AC092043FD0929E
:10025000053FFF90EF90DF90CF90BF90AF909F90C1
:100260008F900895CF92DF92EF92FF92CF93C82F95
:100270008093083F2091063F3091073F8091003FD7
:100280009091013F289FB001299F700D389F700DFC
:100290001124072E000C880B990B3ED220E030E091
:1002A00040E059E3C5D26B017C016C2F70E080E027
:1002B00090E032D29B01AC01C701B6011ED15ADFDA
:1002C000CC0F4091063F5091073F8091003F9091A5
:1002D000013F489F9001499F300D589F300D1124D8
:1002E00037FF02C02150304F20E13202212D330B65
:1002F00011242C0F20938106CF91FF90EF90DF9077
:10030000CF900895CF92DF92EF92FF92CF93DF9339
:10031000EC018093063F9093073F8091003F9091BE
:10032000013FC89FB001C99F700DD89F700D112467
:10033000072E000C880B990BEFD120E030E040E055
:1003400059E376D26B017C016091083F70E080E058
:1003500090E0E2D19B01AC01C701B601CED00ADF2B
:100360002091003F3091013FC29FC001C39F900D7B
:10037000D29F900D112497FF02C08150904F80E1D1
:100380009802812D990B11249091083F990F890FA4
:1003900080938106DF91CF91FF90EF90DF90CF9017
:1003A000089588ED84BF10926100809120048062DE
:1003B00080932004B8DE9BDEA7DEC4DE82E391E0FA
:1003C00009D082E891E00BD08091040887FFFCCF30
:1003D0005ED0FACF80930E3F90930F3F08958093A5
:1003E0000C3F90930D3F0895DA01807F803949F0EA
:1003F00018F48038E1F047C0803B21F1803E81F164
:1004000042C0623008F43FC08C9111966C91662313
:1004100039F0E0910E3FF0910F3F3097F9F435C07D
:10042000E091103FF091113F309751F42EC06230AF
:1004300050F1E091103FF091113F309731F18C91E4
:10044000099523C06230F8F0E091123FF091133F1C
:100450003097D9F011966C9111978C91099515C030
:10046000623088F011968C91119720E8829FC0012C
:1004700011242C91822BE0910C3FF0910D3F30978D
:1004800021F0099502C0862F089580E008956BDE63
:10049000883F88F587FF05C08093023F10920B3F8D
:1004A00013C090910B3F292F30E02230310564F4C6
:1004B0009F5F90930B3FF901E75FF04C8083923090
:1004C00018F082E080930B3F8091023F803F98F4C8
:1004D0002091033F982F9F702F3F11F49093033F7B
:1004E0002091033F921307C049E05FE360910B3F07
:1004F0007BDF80930B3F08955058BB27AA270E94AB
:1005000094020C94DE030E94D00338F00E94D703BB
:1005100020F039F49F3F19F426F40C94CD030EF427
:10052000E095E7FB0C94C703E92F0E94EF0358F313
:10053000BA17620773078407950720F079F4A6F5C8
:100540000C9411040EF4E0950B2EBA2FA02D0B0184
:10055000B90190010C01CA01A0011124FF27591B08
:1005600099F0593F50F4503E68F11A16F040A22F0E
:10057000232F342F4427585FF3CF4695379527957F
:10058000A795F0405395C9F77EF41F16BA0B620B7E
:10059000730B840BBAF09150A1F0FF0FBB1F661FC5
:1005A000771F881FC2F70EC0BA0F621F731F841F08
:1005B00048F4879577956795B795F7959E3F08F02E
:1005C000B0CF9395880F08F09927EE0F97958795F0
:1005D00008950E94FD020C94DE030E94D70358F098
:1005E0000E94D00340F029F45F3F29F00C94C70328
:1005F00051110C9412040C94CD030E94EF0368F384
:100600009923B1F3552391F3951B550BBB27AA27CB
:1006100062177307840738F09F5F5F4F220F331F05
:10062000441FAA1FA9F335D00E2E3AF0E0E832D0CD
:1006300091505040E695001CCAF72BD0FE2F29D0D0
:10064000660F771F881FBB1F261737074807AB07A2
:10065000B0E809F0BB0B802DBF01FF2793585F4F17
:100660003AF09E3F510578F00C94C7030C941204A5
:100670005F3FE4F3983ED4F3869577956795B795F9
:10068000F7959F5FC9F7880F911D9695879597F904
:100690000895E1E0660F771F881FBB1F621773077D
:1006A0008407BA0720F0621B730B840BBA0BEE1F92
:1006B00088F7E09508950E94F70388F09F5798F017
:1006C000B92F9927B751B0F0E1F0660F771F881F57
:1006D000991F1AF0BA95C9F714C0B13091F00E9471
:1006E0001104B1E008950C941104672F782F882726
:1006F000B85F39F0B93FCCF3869577956795B39598
:10070000D9F73EF490958095709561957F4F8F4F06
:100710009F4F0895E89409C097FB3EF4909580950B
:10072000709561957F4F8F4F9F4F9923A9F0F92FB7
:1007300096E9BB279395F695879577956795B79535
:10074000F111F8CFFAF4BB0F11F460FF1BC06F5F1B
:100750007F4F8F4F9F4F16C0882311F096E911C02D
:10076000772321F09EE8872F762F05C0662371F04E
:1007700096E8862F70E060E02AF09A95660F771F62
:10078000881FDAF7880F9695879597F9089597F956
:100790009F6780E870E060E008959FEF80EC089527
:1007A00000240A9416161706180609060895002450
:1007B0000A9412161306140605060895092E0394CA
:1007C000000C11F4882352F0BB0F40F4BF2B11F43E
:1007D00060FF04C06F5F7F4F8F4F9F4F089557FD9D
:1007E0009058440F551F59F05F3F71F04795880F9F
:1007F00097FB991F61F09F3F79F087950895121636
:1008000013061406551FF2CF4695F1DF08C01616E1
:1008100017061806991FF1CF869571056105089492
:100820000895E894BB2766277727CB0197F90895A9
:100830000E942B040C94DE030E94D00338F00E9427
:10084000D70320F0952311F00C94C7030C94CD032B
:1008500011240C9412040E94EF0370F3959FC1F3CE
:10086000950F50E0551F629FF001729FBB27F00D5E
:10087000B11D639FAA27F00DB11DAA1F649F6627B3
:10088000B00DA11D661F829F2227B00DA11D621F02
:10089000739FB00DA11D621F839FA00D611D221FBC
:1008A000749F3327A00D611D231F849F600D211DA0
:1008B000822F762F6A2F11249F5750409AF0F1F023
:1008C00088234AF0EE0FFF1FBB1F661F771F881F8C
:1008D00091505040A9F79E3F510580F00C94C703FA
:1008E0000C9412045F3FE4F3983ED4F38695779519
:1008F0006795B795F795E7959F5FC1F7FE2B880F32
:10090000911D9695879597F90895FA01EE0FFF1FAF
:10091000309621053105A1F16115710561F480382A
:10092000BFE39B0749F168949038810561F08038F6
:10093000BFEF9B0741F099234AF5FF3FE1053105E1
:10094000210519F1E8940894E795D901AA2329F41F
:10095000AB2FBE2FF85FD0F310C0FF5F70F4A695E9
:10096000E0F7F73950F019F0FF3A38F49F779F938A
:100970000DD00F9007FC9058089546F00C94CD03CD
:1009800060E070E080E89FE308954FE79F775F9312
:100990004F933F932F930E9480052F913F914F914A
:1009A0005F910E9418040C94DD0429F416F00C9455
:1009B000C7030C9411040C94CD030E94F703A8F311
:1009C0009638A0F707F80F92E8942BE33AEA48EB41
:1009D0005FE70E942E040F920F920F924DB75EB701
:1009E0000F920E94C805E4E3F0E00E940F054F91CA
:1009F0005F91EF91FF91E595EE1FFF1F49F0FE57C4
:100A0000E0684427EE0F441FFA95E1F74195550B36
:100A10000E9442050F9007FE0C9436050895DF935F
:100A2000CF931F930F93FF92EF92DF927B018C0184
:100A3000689406C0DA2EEF010E942B04FE01E894B0
:100A4000A5912591359145915591A6F3EF010E940D
:100A50009402FE019701A801DA9469F7DF90EF9004
:100A6000FF900F911F91CF91DF9108959B01AC01F1
:100A700060E070E080E89FE30C94E9020C94C70307
:100A80000C94FC050E94F703D8F39923C9F3940F43
:100A9000511DA3F39150504094F059F0882332F047
:100AA000660F771F881F91505040C1F79E3F510538
:100AB0002CF7880F911D9695879597F908955F3FBC
:100AC000ACF0983E9CF0BB27869577956795B795D7
:100AD00008F4B1609395C1F7BB0F58F711F460FFAC
:100AE000E8CF6F5F7F4F8F4F9F4FE3CF0C9412047F
:100AF00016F00C94FC050C94CD0368940C94C70379
:100B00000E94F703A8F39923C1F3AEF3DF93CF93C9
:100B10001F930F93FF92C92FDD2788232AF0219777
:100B2000660F771F881FDAF720E030E040E85FEBC0
:100B30009FE3883920F0803E38F021968F770E941D
:100B40007D02ECE5F0E004C00E947D02E9E8F0E0FF
:100B50000E940F058B01BE01EC01FB2E6F5771093E
:100B60007595771F880B990B0E948C0328E132E75B
:100B700041E35FE30E942B04AF2D9801AE01FF908B
:100B80000F911F91CF91DF910E9494020C94DE038C
:100B9000FA01DC01AA0FBB1F9B01AC01BF5728F46F
:100BA000222733274427507820C0B75190F4AB2F29
:100BB0000024469537952795011CA395D2F3002074
:100BC00071F0220F331F441FB395DAF30ED00C944B
:100BD0007C0261307105A0E88A07B94630F49B01B8
:100BE000AC016627772788279078309621F02083FC
:100BF00031834283538308959F3F31F0915020F415
:100C0000879577956795B795880F911D96958795E8
:100C100097F90895A1E21A2EAA1BBB1BFD010DC076
:100C2000AA1FBB1FEE1FFF1FA217B307E407F5079C
:100C300020F0A21BB30BE40BF50B661F771F881F78
:100C4000991F1A9469F760957095809590959B010E
:100C5000AC01BD01CF010895052E97FB16F4009459
:100C60000FD057FD05D0D6DF07FC02D046F408C0F0
:100C700050954095309521953F4F4F4F5F4F0895C8
:100C800090958095709561957F4F8F4F9F4F0895F8
:100C900009D0A59F900DB49F900DA49F800D911D2C
:100CA00011240895A29FB001B39FC001A39F01D05A
:100CB000B29F700D811D1124911D0895F894FFCFEE
:040CC000020090FF9F
:00000001FF
